:020000040800F2
:1000000000500020251600086D1600086D16000827
:100010006D1600086D1600086D160008000000003F
:100020000000000000000000000000006D16000845
:100030006D160008000000006D160008131100087E
:100040006D1600086D1600086D1600086D16000884
:100050006D1600086D16000801120008071200084E
:100060000D12000813120008191200086D1600087E
:100070006D1600086D1600086D1600086D16000854
:100080006D1600086D1600086D1600086D16000844
:100090006D1600086D1600086D1600081F12000886
:1000A0006D160008451000086D160008591000086C
:1000B0005D10000871100008851000086D1600081A
:1000C0006D1600086D1600086D1600086D16000804
:1000D0006D1600081D15000835150008511500089B
:1000E000351200086D1600086D16000800000000AB
:1000F0000000000000000000000000000000000000
:0C01000000000000000000005FF808F1A3
:10010C0010B5054C237833B9044B13B10448AFF345
:10011C0000800123237010BD64000020000000004B
:10012C00341B000808B5034B1BB103490348AFF35C
:10013C00008008BD0000000068000020341B00088F
:10014C00704770470B490C4A10B58C6952F8244023
:10015C00C465CC69496952F82440046652F82120E0
:10016C004FF0FF314266054AC0E91A120122A0F88D
:10017C00702010BD001C0008401C000800093D0048
:10018C000148FFF7DFBF00BF800000207047000070
:10019C0038B50E4B05461A784FF47A73B3FBF2F36D
:1001AC000B4A1068B0FBF3F000F09CF8044658B909
:1001BC000F2D09D8024629464FF0FF3000F042F8C7
:1001CC002046044B1D6038BD0120FCE700000020D8
:1001DC001000002004000020074A08B51368032013
:1001EC0043F01003136000F01BF80020FFF7D0FF62
:1001FC00FFF7CCFF002008BD00200240034A044B4F
:10020C0011681B780B441360704700BFF40000208A
:10021C0000000020014B1868704700BFF40000205C
:10022C0007490302CA6803F4E06322F4E062120493
:10023C00120C134343F0BF6343F40033CB6070479D
:10024C0000ED00E0154B30B5DC68C4F30224C4F1BA
:10025C000703251D042B28BF0423062D4FF0FF3563
:10026C0094BF0024033C05FA03F321EA0303A540E1
:10027C0022EA0502A340002843EA0203ACBF00F1C6
:10028C006040074A4FEA0313DBB2ABBF00F5614095
:10029C0000F00F0080F80033135430BD00ED00E087
:1002AC0014ED00E0002807DB01234109034A00F0AC
:1002BC001F00834042F82130704700BF00E100E08E
:1002CC0000280CDB01220649430900F01F00824084
:1002DC00203341F82320BFF34F8FBFF36F8F70474C
:1002EC0000E100E00138B0F1807F0BD24FF0E02349
:1002FC00F021054A586182F82310002007229861EA
:10030C001A6170470120704700ED00E0002808DBFF
:10031C0001224309034900F01F008240603341F879
:10032C002320704700E100E0704708B5FFF7FCFFA1
:10033C0008BD704710B5044650B1437903F0FF0275
:10034C0013B90271FFF7F5FF01230020637110BD93
:10035C000120FCE790F821200346022A06D0042253
:10036C0082630120002283F8202070470268C06B52
:10037C00116821F00E011160116821F0010111606A
:10038C0001211A6C01FA02F24260002083F821105C
:10039C00E8E7000008B590F82130022B03D00423C5
:1003AC008363012008BD03681A6822F00E021A60EC
:1003BC001A6822F001021A60174A93421FD01432B5
:1003CC0093421ED0143293421DD0143293421DD04E
:1003DC00143293421DD01432934214BF4FF08073E9
:1003EC004FF480130D4A5360012380F82130002311
:1003FC0080F82030436B03B198470020D2E70123EB
:10040C00F0E71023EEE74FF48073EBE74FF48053E3
:10041C00E8E74FF48033E5E70800024000000240B3
:10042C00044A08B55169014202D0506100F0CCFE7B
:10043C0008BD00BF000401402DE9F341054638B367
:10044C000368DB0710D42B689F075ED42B68190751
:10045C0000F195802B685A0700F1C180EB69002BE5
:10046C0040F02C81002029E0904C636803F00C03D1
:10047C00042B07D0636803F00C03082B0AD16368C4
:10048C00DE0307D523689C03DDD56B68002BDAD11E
:10049C00012013E06B68B3F5803F12D1236843F45D
:1004AC0080332360FFF7B6FE064623689803CAD450
:1004BC00FFF7B0FE801B6428F7D9032002B0BDE81B
:1004CC00F0819BB9236823F480332360236823F4E1
:1004DC0080232360FFF79EFE064623689903B2D55E
:1004EC00FFF798FE801B6428F7D9E6E7B3F5A02F39
:1004FC00236803D143F480232360CFE723F48033B4
:10050C002360236823F48023CBE7684C636813F0E3
:10051C000C0F07D0636803F00C03082B10D1636831
:10052C00DA030DD423689B0702D52B69012BAFD1BD
:10053C0023686A6923F0F80343EAC203236085E762
:10054C002A695B4B6AB101221A60FFF763FE06460B
:10055C0023689F07ECD4FFF75DFE801B0228F7D9B8
:10056C00ABE71A60FFF756FE0646236898077FF53F
:10057C006DAFFFF74FFE801B0228F6D99DE7AA69E5
:10058C004A4E4B4BE2B10122C3F88024FFF742FEE6
:10059C000446736A9B070DD54FF4FA52454B1B6802
:1005AC00B3FBF2F3019300BF019B5A1E0192002B87
:1005BC00F9D14FE7FFF72EFE001B0228E9D97CE7A3
:1005CC00C3F88024FFF726FE0446736A9F077FF565
:1005DC0041AFFFF71FFE001B0228F6D96DE7334C25
:1005EC00E369D80024D40127E36943F08053E36125
:1005FC00E36903F080530093009B2F4E3368D905B9
:10060C0018D5EB68012B26D1236A43F00103236232
:10061C00FFF700FE41F288380646236A9B073FD558
:10062C00002F3FF41BAFE36923F08053E36115E720
:10063C000027E2E7336843F480733360FFF7EAFD89
:10064C0080463368DA05DCD4FFF7E4FDA0EB080044
:10065C006428F6D931E7ABB9236A41F2883823F024
:10066C0001032362236A23F004032362FFF7D2FD04
:10067C000646236A9807D3D5FFF7CCFD801B40456F
:10068C00F7D91AE7052B236A03D143F0040323623D
:10069C00BAE723F001032362236A23F00403B6E7CD
:1006AC00FFF7B8FD801B4045B7D906E700100240A4
:1006BC000000424210000020007000402A4C62688A
:1006CC0002F00C02082A3ED00022022B274B1A669D
:1006DC002CD1FFF79FFD06462368990120D42B6A85
:1006EC00B3F5803F05D16268A96822F400320A4351
:1006FC006260696A62680B4322F47412134301222C
:10070C0063601A4B1A66FFF785FD054623689A014C
:10071C003FF5A8AEFFF77EFD401B0228F6D9CCE6CC
:10072C00FFF778FD801B0228D6D9C6E6FFF772FDCD
:10073C00054623689B017FF595AEFFF76BFD401BCB
:10074C000228F6D9B9E6012B3FF4A2AE60682B6AF9
:10075C0000F480329A427FF49BAE6B6A00F4701006
:10076C00C01A18BF0120A9E6001002400000424246
:10077C000D4A536803F00C01082912D10B48C3F33E
:10078C008341DB03405C09D55368094AC3F34043FA
:10079C005043084AD35CB0FBF3F07047064B584308
:1007AC0070470348704700BF001002404E1B000802
:1007BC0000127A004C1B000800093D002DE9F041A5
:1007CC000D46044610B90120BDE8F081444A136877
:1007DC0003F007038B4228D321688E0730D4CA0755
:1007EC0043D43F4A136803F00703AB4265D8226831
:1007FC003C4D12F0040F6CD1130706D56B682269BF
:10080C0023F4605343EAC2036B60FFF7B1FF6B68DC
:10081C00354AC3F30313D35CD840344B1860344BC4
:10082C001868FFF7B5FC0020CEE7136823F0070328
:10083C000B431360136803F007038B42C3D1CBE760
:10084C00284B11F0040F1EBF5A6842F4E0625A6044
:10085C00080742BF5A6842F460525A605A68A0684E
:10086C0022F0F00202435A60B9E762681D4E012A79
:10087C0033681AD113F4003FA5D0736841F288385D
:10088C0023F0030313437360FFF7C4FC074673683C
:10089C00626803F00C03B3EB820FA2D0FFF7BAFC33
:1008AC00C01B4045F3D903208EE7022A02D113F076
:1008BC00007FE1E713F0020FDEE7136823F0070374
:1008CC002B431360136803F00703AB427FF47BAF39
:1008DC008DE76B68E16823F4E0630B436B608BE797
:1008EC0000200240001002405E1B00081000002097
:1008FC000400002003682DE9F3410546D80721D5F3
:10090C00364CE369D9002BD40126E36943F08053BC
:10091C00E361E36903F080530193019B304F3B6823
:10092C00DA051FD5236A6A6813F440732ED1236A43
:10093C006A6823F44073134323621EB1E36923F006
:10094C008053E3612A68910706D52449A8684B684F
:10095C0023F4404303434B60D30636D4002012E00B
:10096C000026DBE73B6843F480733B60FFF752FCE7
:10097C0080463B68DB05D5D4FFF74CFCA0EB0800A8
:10098C006428F6D9032002B0BDE8F08102F440726D
:10099C009A42CCD00120134A236AC2F840040020AA
:1009AC0023F44071DF07C2F840042162BFD5FFF782
:1009BC0031FC41F288380746236A9807B7D4FFF711
:1009CC0029FCC01B4045F7D9DCE7044AE9685368A9
:1009DC0023F480030B435360C0E700BF00100240B8
:1009EC00007000400000424270477047036810B529
:1009FC001A69044691070ED5DA6892070BD56FF089
:100A0C0002021A61012202779B699B0777D000F0E2
:100A1C0075FB0023237723681A69500710D5DA6811
:100A2C0051070DD56FF004021A61022222779B69DF
:100A3C00204613F4407F68D000F060FB002323773E
:100A4C0023681A6912070FD5DA6810070CD56FF0F6
:100A5C0008021A6104222277DB69204699075AD0D2
:100A6C0000F04CFB0023237723681A69D20610D5BB
:100A7C00DA68D0060DD56FF010021A6108222277C1
:100A8C00DB69204613F4407F4BD000F037FB00238A
:100A9C00237723681A69D10708D5DA68D20705D5F8
:100AAC006FF0010220461A6100F005FB23681A69F9
:100ABC00100608D5DA68110605D56FF080022046BD
:100ACC001A6100F036F823681A69520608D5DA68FC
:100ADC00500605D56FF0400220461A61FFF785FFDE
:100AEC0023681A69910622D5DA6892061FD56FF031
:100AFC0020022046BDE810401A6100F019B800F041
:100B0C00FBFA2046FFF770FF83E700F0F5FA20466A
:100B1C00FFF76AFF92E700F0EFFA2046FFF764FF59
:100B2C00A0E700F0E9FA2046FFF75EFFAFE710BD43
:100B3C0070477047026802F10C0353E8003F23F43E
:100B4C0090730C3242E8003102680029F2D102F1B4
:100B5C00140353E8003F23F0010302F1140C4CE89A
:100B6C0000310029F3D1036B012B0BD102F10C03E3
:100B7C0053E8003F23F0100302F10C0C4CE8003159
:100B8C000029F3D1202380F84230002303637047FF
:100B9C0090F84130202B10D189B182B1C28482846B
:100BAC000023212201620168436480F84120CA6855
:100BBC00184642F08002CA6070470220704701203C
:100BCC00704708B50023406AC385C38400F062FCFB
:100BDC0008BD704790F8423007B5222B42D181688E
:100BEC000268B1F5805F836A3FD1016900293FD16A
:100BFC005268C2F3080223F8022B8362C38D013BB7
:100C0C009BB2C385002B2DD10268D16821F0200145
:100C1C00D160D16821F48071D160516921F001015A
:100C2C005161202280F842204363026B012A026842
:100C3C0028D1036302F10C0353E8003F23F01003A7
:100C4C0002F10C0C4CE800310029F3D11368DB06DF
:100C5C0005D501911368019353680193019B818D14
:100C6C00FFF7B7FF03B05DF804FB39B9016929B987
:100C7C005268D2B21A70836A0133BEE7526802F02E
:100C8C007F02F7E700F000FCECE70000036873B5A7
:100C9C001A6804461607D9685D690AD1960640F1B0
:100CAC008B808D0640F1888002B0BDE87040FFF764
:100CBC0091BF15F001054BD012F0010F02F00403A7
:100CCC0063D11BB1636C43F002036364930749D592
:100CDC00636C12F0080F43F00403636403D0636C7D
:100CEC0043F008036364636C002B5FD0920604D559
:100CFC008B0602D52046FFF76DFF266820467369E8
:100D0C00626C03F0400302F0080253EA02054FD074
:100D1C00FFF710FF73695E0645D5226802F11403D4
:100D2C0053E8003F23F04003143242E8003100291D
:100D3C00F3D1E06B002836D0894B4363FFF72AFBD5
:100D4C00002833D0E06B436B02B0BDE8704018470D
:100D5C0011F4907F30D012F0010F02F0040307D190
:100D6C0090070DD41007BED501F020032B43B5E737
:100D7C00CE050FD4002BF3D19607F3D5002DA7D1B8
:100D8C001507B0D511F0200FA8E7C80502D4002B29
:100D9C0098D1F1E7636C560743F001036364EBD51C
:100DAC00002DDDD08EE7204600F074FB02B070BD44
:100DBC0000F070FB6564F9E7206B012840F094802B
:100DCC00D50640F19180C80640F18E800022019238
:100DDC001A6801925A680192019A5A6952064DD5C5
:100DEC00E16B0A68526892B2002ADFD0A08D904263
:100DFC00DCD9E2858A69202A36D003F10C0252E84C
:100E0C00002F22F4807203F10C0040E8002100292D
:100E1C00F3D103F1140252E8002F22F0010203F186
:100E2C00140040E800210029F3D103F1140252E828
:100E3C00002F22F0400203F1140040E800210029A9
:100E4C00F3D1202284F84220216303F10C0252E8F2
:100E5C00002F22F0100203F10C0040E800210029C1
:100E6C00F3D1E06BFFF776FA02236363E38DA18D78
:100E7C00C91A89B22046FFF7ACFE97E7E28DE08DE8
:100E8C00A18D80B292B2002890D0891A89B2002923
:100E9C008CD003F10C0252E8002F22F4907203F173
:100EAC000C0545E800200028F3D103F1140252E8A8
:100EBC00002F22F0010203F1140545E80020002860
:100ECC00F3D1202284F84220206303F10C0252E873
:100EDC00002F22F0100203F10C0545E80020002839
:100EEC00F3D102236363C5E7160628D50D0626D574
:100EFC0094F84120212A7FF459AFA168226AB1F5F8
:100F0C00805F17D12169A9B932F8021BC1F308011E
:100F1C0059602262E28C013A92B2E284002A7FF498
:100F2C0045AFDA6822F08002DA60DA6842F04002FB
:100F3C00DA603BE7511C216212785A60EAE75006EE
:100F4C007FF534AF4A067FF531AFDA68204622F0E0
:100F5C004002DA60202384F8413000F098FA25E74B
:100F6C00CF0B000890F84030012B11D024230268DD
:100F7C0080F84130D36823F00C0343F00803D360AE
:100F8C00202380F84130002380F840301846704709
:100F9C000220704790F84030012B11D024230268B6
:100FAC0080F84130D36823F00C0343F00403D36082
:100FBC00202380F84130002380F8403018467047D9
:100FCC000220704790F8412090F84200104370477F
:100FDC000023C285436422238285026980F8423053
:100FEC00816203681AB1DA6842F48072DA605A6975
:100FFC00002042F001025A61DA6842F02002DA6005
:10100C00704770B490F84260202E06D141B13AB1CD
:10101C000024046370BCFFF7DBBF022070BC704778
:10102C000120FBE7836810B5044613B10322014687
:10103C009847204610BD0000034B186810B10430CF
:10104C00FFF7D4BC704700BFF8000020FFF7F4BFD7
:10105C00034B586810B10430FFF7C8BC704700BF91
:10106C00F8000020034B986810B10430FFF7BEBCA9
:10107C00704700BFF8000020034BD86810B1043053
:10108C00FFF7B4BC704700BFF8000020826810B5B1
:10109C000AB900F045FDC368BDE81040184708B513
:1010AC0000B9FEE700F08EF90068836E13B1603072
:1010BC00FFF7ECFF08BDFFF7F2BF10B500B9FEE774
:1010CC00037F013B072B10D8DFE803F004140F104B
:1010DC000F0F0F12012400F075F90068063400EBB5
:1010EC00041083680BB1FFF7D1FF10BD0324F2E7A6
:1010FC000424F0E70224EEE7FFF7DFBFFFF7DDBFC4
:10110C00FFF788B8704708B5FFF778F8FFF70DF9C7
:10111C00FFF7F8FF08BD70470F4B84B0DA6942F057
:10112C008052DA61DA6902F080520192019A9A696E
:10113C0042F001029A619A6902F001020292029A4B
:10114C005A6942F040025A615B6903F04003039311
:10115C00039B04B0704700BF001002400C4BD3F847
:10116C00FC20D2015EBFD3F8FC2042F08072C3F8A1
:10117C00FC200022074B5A601A6842F001021A60E8
:10118C0000BF00BF00BF5868B0FA80F0400970473C
:10119C0000ED00E0001000E008B5FFF7BDFFFFF721
:1011AC00DDFFFFF719F8FFF7B6FF00F0E5F9BDE832
:1011BC0008400148FFF7BEB8080000200023C0E932
:1011CC000033C0E9023370470023012803F1010208
:1011DC000AD11422DBB25343054A181D104481680E
:1011EC0029B11A441369184713464008EDE77047B4
:1011FC00080100200120FFF713B90220FFF710B9F6
:10120C000420FFF70DB90820FFF70AB91020FFF7EB
:10121C0007B938B505242025A8B2FFF701F9013C20
:10122C004FEA4505F8D138BD38B506244FF4806532
:10123C00A8B2FFF7F5F8013C4FEA4505F8D138BDE7
:10124C00344A08B51046062300F8043BFFF7B6FFF6
:10125C00072302F118001375FFF7B0FF082302F102
:10126C002C0082F82830FFF7A9FF092302F1400077
:10127C0082F83C30FFF7A2FF0A23172102F1540039
:10128C0082F85030FFF79AFF02F1680082F8641080
:10129C00FFF794FF02F17C0082F87810FFF78EFFC5
:1012AC0002F1900082F88C10FFF788FF02F1A40085
:1012BC0082F8A010FFF782FF82F8B410282102F107
:1012CC00B800FFF77BFF02F1CC0082F8C810FFF7E3
:1012DC0075FF02F1E00082F8DC10FFF76FFF02F1FE
:1012EC00F40082F8F010FFF769FF02F5847082F8C1
:1012FC000411FFF763FF02F58E7082F81811FFF7E7
:10130C005DFFBDE8084002F5987082F82C11FFF7DC
:10131C0055BF00BF0801002038B5054CA4F5A075D9
:10132C00143C201DFFF77EFEAC42F9D138BD00BF46
:10133C00480200200B685A1C01D1002070478342E0
:10134C0001D1486870470C31F4E7431C01D0FFF71A
:10135C00F1BF002070474B6813B94FF0FF30704756
:10136C00834201D1086870470C31F4E708B1FFF7EC
:10137C00F2BF4FF0FF3070470F4B1A6842F001027A
:10138C001A6059680D4A0A405A601A6822F0847231
:10139C0022F480321A601A6822F480221A605A6889
:1013AC0022F4FE025A604FF41F029A604FF0006262
:1013BC00034B9A60704700BF001002400000FFF81A
:1013CC0000ED00E00438704708B5074B90F8652035
:1013DC0053F82200FFF7F6FD00F02200A0F12203E3
:1013EC005842584108BD00BF4802002008B5074BC1
:1013FC0090F8652053F82200FFF7E4FD00F021007F
:10140C00A0F121035842584108BD00BF48020020FA
:10141C0038B515460446B8B1016590F96400FEF77D
:10142C004FFFB4F87630E16E9BB294F86500194426
:10143C00064BAAB253F82000FFF7AAFB94F96400FC
:10144C00BDE83840FEF72EBF38BD00BF4802002073
:10145C0048B1836D013306D190F86520024B53F8E7
:10146C002200FFF77FBD70474802002048B1836D12
:10147C00013306D190F86520024B53F82200FFF798
:10148C0089BD704748020020836C04381847C36C30
:10149C000438184730B5044650F8043985B01D6837
:1014AC0015F0010512D0002200921A6800925B68B8
:1014BC000093009BFFF788FF40BB0122204604F1FC
:1014CC00620105B0BDE83040FFF79BBD196811F013
:1014DC00020106D001951A6801925B680193019B89
:1014EC00E8E71A6812F0040206D002911A68029218
:1014FC005B680293029BDDE719680907DAD5039252
:10150C001A6803925B680393039BD3E705B030BD65
:10151C0008B52520FEF7FAFE024B1868BDE8084016
:10152C00FFF7B4BB48020020262008B5FEF7EEFEFC
:10153C00034B586818B1BDE80840FFF7A7BB08BDBE
:10154C0048020020272008B5FEF7E0FE034B986800
:10155C0018B1BDE80840FFF799BB08BD4802002050
:10156C00FEE700001622024B4FF0FF301A60704766
:10157C00A40400200120704710B594B0142200215F
:10158C000CA800F047FA142200210DEB020000F029
:10159C0041FA1022002101A800F03CFA02244FF479
:1015AC0080330122CDE91143CDE90A234FF4E01336
:1015BC000AA80E921393FEF73FFF00B1FEE70F232C
:1015CC00CDE905344FF480630790CDE9083021460E
:1015DC0005A8FFF7F3F800B1FEE7122301934FF4CF
:1015EC000043CDE9033001A8FFF784F900B1FEE711
:1015FC0014B010BD08B50320FEF712FEBDE808407C
:10160C0000F03EB808B5AFF30080FEF799FDFEF789
:10161C0098FD00F027F8FAE7FFF7AEFE0B480C49EF
:10162C000C4A002302E0D458C4500433C4188C4232
:10163C00F9D3094A094C002301E013600432A24299
:10164C00FBD300F0EFF9FFF7DDFF7047000000203F
:10165C0064000020581D000864000020A80400202D
:10166C00FEE7000008B5044B2BB1044800F00BF862
:10167C0008B1AFF3008008BD000000005402002048
:10168C00FFF78ABD7047B0F80831B0F80421981AFA
:10169C0000F03F007047B0F80831B0F804219BB25D
:1016AC0093421ABFD0F8FC30985C4FF0FF30704773
:1016BC0090F80631B0F80A01C0B2834227BFC3F1DB
:1016CC003F03C018C01A00F1FF30704707B503681C
:1016DC008DF8071001225B680DF10701984703B0E4
:1016EC005DF804FBB0F87610826F10B50A4402F076
:1016FC003F02A0F87620B0F87610B0F8722089B2CC
:10170C008A421AD0B0F876404032A4B2B0F87610C3
:10171C00121B544289B204F03F0402F03F02C1F1A3
:10172C00400158BF62428A4228BF0A460449826778
:10173C00FFF76EFE4FF0FF3010BD0020FCE700BF3E
:10174C00F116000803682DE9F0479B6804468846AB
:10175C001646984701232374D4F8EC30B4F806915C
:10176C0001338246C9F1400904F1940708D194F879
:10177C0010312BB10023384684F81031FFF768FE86
:10178C00236820469B6898470028F9D035464D457C
:10179C0023D8554521D8B4F80621D4F800015319A3
:1017AC00402B10442FD82A46414600F05FF9A94639
:1017BC00B4F8063138461D4405F03F05A4F806512F
:1017CC00FFF714FE30B94A4638461649C4F80C9156
:1017DC00FFF71EFE3046BDE8F087D14528BFD14645
:1017EC0023684A4641465B68204698472368204652
:1017FC009B689847A5EB0905C844B4F80691824646
:10180C00C9F14009C3E7C2F140094A46414600F01C
:10181C002DF9D4F80001A5EB090208EB090100F041
:10182C0025F9C5E7F1160008037C70B504460D4692
:10183C00A3B1FEF7EFFC0646B4F80621B4F80A3162
:10184C009BB29A420AD0002DF8D0FEF7E3FC801B25
:10185C008542F1D8B4F80A31A4F8063170BDC0F84D
:10186C00F030009B914208BF4FF0FF31C0F8F430CC
:10187C0000F11103C0F8FC300023C0E93A2100F15B
:10188C005102A0F80831C0E94023A0F80A31704792
:10189C00F7B54FF47A7317460022C0E901231C4BAD
:1018AC00044603604FF0FF33C0F8EC30194B1A4E6E
:1018BC009C420D46706A05D1B36AC4F8EC30C4F88A
:1018CC00E8000AE01549FFF740FD854215D1B36ADF
:1018DC00C4F8EC30736AC4F8E8304FF0FF33012FD2
:1018EC0008BFC4F8EC3000932046D4E93A214FF0FD
:1018FC00FF33FFF7B4FF03B0F0BD28460849FFF7EC
:10190C0035FD0649C4F8EC002846FFF72FFDD6E755
:10191C00141D000854020020401C0008B81B0008CD
:10192C00701B0008D0F8EC3010B5013304460FD111
:10193C00036800215B6A984794F8103143B901237E
:10194C0004F1940084F81031BDE81040FFF78EBD0F
:10195C0010BD10B50446FFF7E5FFB4F80821B4F844
:10196C00043192B29A4217BFD4F8FC204FF0FF30EA
:10197C00D05C01331CBF03F03F03A4F8043110BD4D
:10198C00002202490248FFF783BF00BF0038014024
:10199C005402002010B5044600F03AF8E0602368C9
:1019AC0020465B699847002808DA00F031F8E368B4
:1019BC00C01AA3689842F2D34FF0FF3010BDF8B5AF
:1019CC0007460D460C468E18B44201D1601BF8BD7B
:1019DC003846FFF7DFFF031EF8DB04F8013BF3E7A3
:1019EC002DE9F0410746884616461D4673B1002482
:1019FC003846FFF7CFFF031E05DB434503D03355B5
:101A0C000134A542F4D12046BDE8F0811C46FAE72A
:101A1C00FFF776BB03460244934200D1704703F8AC
:101A2C00011BF9E770B500260C4D0D4C641BA4107E
:101A3C00A64209D100F078F800260A4D0A4C641B26
:101A4C00A410A64205D170BD55F8043B9847013649
:101A5C00EEE755F8043B98470136F2E73C1D0008C9
:101A6C003C1D00083C1D0008501D00080A44914212
:101A7C0000F1FF3300D1704710B511F8014B9142C2
:101A8C0003F8014FF9D110BD062008B500F02CF871
:101A9C000120FFF765FD1F2938B505460C4604D912
:101AAC00162303604FF0FF3038BDC26B12B152F8F1
:101ABC0021304BB9284600F031F822460146284621
:101ACC00BDE8384000F018B8012B0AD0591C03D1DE
:101ADC00162303600120E7E70021204642F824107A
:101AEC0098470020E0E70000024B01461868FFF71A
:101AFC00D2BF00BF1400002038B50023064D0446A9
:101B0C00084611462B60FFF72DFD431C02D12B68B4
:101B1C0003B1236038BD00BFA4040020FFF72ABD29
:101B2C0008B5FFF7B1FF0000F8B500BFF8BC08BC62
:101B3C009E467047F8B500BFF8BC08BC9E4670477F
:101B4C00010202030405060708090A0B0C0D0E0F0F
:101B5C001010000000000000000001020304060742
:101B6C0008090000030000000044004010080000B9
:101B7C000A000000003801401006000017000000A9
:101B8C0000380140100500001B0000000048004018
:101B9C00100000002B00000000480040100A00005C
:101BAC00FFFFFFFF0000000000000000020000002B
:101BBC0000440040120800000900000000380140F9
:101BCC00120600001600000000380140120500004B
:101BDC001A00000000480040120000002A0000001B
:101BEC0000480040120A0000FFFFFFFF0000000049
:101BFC0000000000000000000100000002000000D6
:101C0C0003000000040000000500000006000000B6
:101C1C000700000010000000110000002000000070
:101C2C00210000002200000023000000240000001E
:101C3C002500000000000000010000000200000070
:101C4C000300000004000000050000000600000076
:101C5C000700000008000000090000000A00000056
:101C6C000B0000000C0000000D0000000E00000036
:101C7C000F00000010000000110000001200000016
:101C8C0013000000140000001500000016000000F6
:101C9C001700000018000000190000001A000000D6
:101CAC001B0000001C0000001D0000001E000000B6
:101CBC001F00000020000000210000002200000096
:101CCC002300000024000000250000002600000076
:101CDC002700000028000000290000002A00000056
:101CEC002B0000002C0000002D0000002E00000036
:101CFC002F00000030000000310000003200000016
:101D0C000000000000000000D91600085117000860
:101D1C00BD16000891160008931600085F190008FC
:101D2C00A3160008CB190008ED1900083518000897
:101D3C0001160008310100088D0100084D12000841
:041D4C008D190008E5
:081D50000D0100082513000835
:101D580001000000100000000030024000000000F8
:101D68000024F40018000020000000006C0300208C
:101D7800D40300203C040020000000000000000004
:101D8800000000000000000000000000000000004B
:101D9800000000000000000000000000000000003B
:101DA800000000000000000000000000000000002B
:041DB8000000000027
:0400000508001625B4
:00000001FF
