:020000040800F2
:1000000000500020053200084D3200084D32000833
:100010004D3200084D3200084D320008000000004B
:100020000000000000000000000000004D32000849
:100030004D320008000000004D3200089B260008E9
:100040004D3200084D3200084D3200084D32000894
:100050004D3200084D320008892700088F2700081C
:10006000952700089B270008A12700084D320008AB
:100070004D3200084D3200084D3200084D32000864
:100080004D3200084D3200084D3200084D32000854
:100090004D3200084D3200084D320008A7270008F5
:1000A0004D320008952400084D320008A9240008AC
:1000B000AD240008C1240008D524000889050008E3
:1000C00095050008A1050008AD0500084D3200089F
:1000D0004D320008453000085D30000879300008D6
:1000E000BD2700084D3200084D3200080000000016
:1000F0000000000000000000000000000000000000
:0C01000000000000000000005FF808F1A3
:10010C0010B5054C237833B9044B13B10448AFF345
:10011C0000800123237010BD7C0000200000000033
:10012C00643A000808B5034B1BB103490348AFF30D
:10013C00008008BD0000000080000020643A000828
:10014C00044A026001228280C0F800220022C0E929
:10015C008122704700093D00274B2DE9F047D0E97B
:10016C0080A8012703600323044600264371D0F8BE
:10017C00089239460771404603F064F839465046F8
:10018C0003F060F83946484603F05CF839464046BF
:10019C0003F0B6F83146D4F8080203F0B1F839464A
:1001AC00D4F8000203F0ACF83946D4F8040203F09A
:1001BC00A7F894F80C323546022B18D0032B19D023
:1001CC00BB4208BF2F2645F3CF0206EBC2166A428C
:1001DC0002F0070205F0070358BF534201223444D2
:1001EC009A40237A23EA02032372BDE8F087532650
:1001FC002F25E8E75325E6E7002D31010023C02227
:10020C00C1210148FFF7A8BF9800002070470000EB
:10021C000148FFF795BF00BF980000200B490C4A1E
:10022C0010B58C6952F82440C465CC69496952F800
:10023C002440046652F821204FF0FF314266054AF3
:10024C00C0E91A120122A0F8702010BDD03D0008A0
:10025C00103E000800093D000148FFF7DFBF00BF5A
:10026C00A8020020002070477047028BC08A101A29
:10027C0070470346C28A018B914281BF0169885C39
:10028C000132DA8298BF4FF0FF307047028BC38A7D
:10029C009A4286BF0269D05C4FF0FF30704783688A
:1002AC0010B5044613B1032201469847204610BDF1
:1002BC0038B50446283000F0D3F8E06918B103F0E3
:1002CC00FBF90023E36100252069258410B103F0BC
:1002DC00F3F92561A58238BD38B505460446074BB0
:1002EC0045F8D43BFFF7E4FF2846FFF7D8FF04F1AD
:1002FC00C400FFF7D4FF204638BD00BF843A000885
:10030C00B1F5806F70B505460C4610D8038C994238
:10031C000AD920290E4638BF2026C069314603F081
:10032C0079FA18B1E8612E84204670BDFEE70024EE
:10033C00FAE713B590F8243004468DF807107BB11A
:10034C00418C0131FFF7DCFF40B10120638C9DF83B
:10035C000710E269D154638C0133638402B010BD81
:10036C0001220DF10701283000F089F8B0FA80F075
:10037C004009F3E770B590F8243004460E46154654
:10038C0093B1418C1144FFF7BBFF10B900252846EF
:10039C0070BD638CE0692A461844314603F0AEFA0E
:1003AC00638C2B446384F2E792B2283000F067F838
:1003BC000028EBD1EBE70346C06918B100211A8C79
:1003CC0003F05EBA7047002110B50446C182018368
:1003DC00006910B1A28A03F053FA0023204663840B
:1003EC00FFF7E9FF10BD0022C0E90022C0E902229C
:1003FC0070470022C0E90022C0E9022270470000C9
:10040C0038B500254FF47A730446C0E901530C4B00
:10041C0040F8C43BFFF7E7FF04F1D400FFF7E9FF16
:10042C009C22294604F1280003F02AFA054B2046A9
:10043C00DA6DC4F884209B6DC4F8883038BD00BFD9
:10044C00843A0008103E00080148FFF7D9BF00BFEE
:10045C001C0300200148FFF73FBF00BF1C03002016
:10046C0010B5044690F9640000F03AF994F965006F
:10047C0000F036F9201DBDE8104000F0F2B9202A3A
:10048C0030B514D800239CB2A24207D890F894300F
:10049C001344DBB280F89430002030BD90F89440C7
:1004AC00CD5C1C44044484F874500133EBE7012008
:1004BC00F3E770B590F891300446012B0D46A0F18E
:1004CC00040609D1436E3BB1836E30469847022334
:1004DC0084F89130002363668DB9E36E84F89150F3
:1004EC001BB1304684F890509847204694F89020E1
:1004FC0004F170012023BDE8704000F0CBB900235B
:10050C000122636684F89120616E20467431314477
:10051C000423BDE8704000F0F8B910B590F89130A4
:10052C000446012B04D1436E13B1836E04389847F3
:10053C00022384F89130002320466366BDE8104006
:10054C0000F01EBA436E1F2BDEBF436E01334366B1
:10055C0090F89130012BDAB205D1416E0423703141
:10056C00014400F0D2B97047002380F890307047F6
:10057C0090F892300BB900F003BA7047014B186831
:10058C0000F09ABB00040020014B186800F0F0BF8B
:10059C0000040020014B586800F08EBB00040020C2
:1005AC00014B586800F0E4BF0004002070470000C5
:1005BC0038B50E4B05461A784FF47A73B3FBF2F349
:1005CC000B4A1068B0FBF3F000F09CF8044658B9E5
:1005DC000F2D09D8024629464FF0FF3000F042F8A3
:1005EC002046044B1D6038BD0120FCE700000020B4
:1005FC002400002004000020074A08B513680320DB
:10060C0043F01003136000F01BF80020FFF7D0FF3D
:10061C00FFF7CCFF002008BD00200240034A044B2A
:10062C0011681B780B441360704700BF080400204E
:10063C0000000020014B1868704700BF0804002020
:10064C0007490302CA6803F4E06322F4E06212046F
:10065C00120C134343F0BF6343F40033CB60704779
:10066C0000ED00E0154B30B5DC68C4F30224C4F196
:10067C000703251D042B28BF0423062D4FF0FF353F
:10068C0094BF0024033C05FA03F321EA0303A540BD
:10069C0022EA0502A340002843EA0203ACBF00F1A2
:1006AC006040074A4FEA0313DBB2ABBF00F5614071
:1006BC0000F00F0080F80033135430BD00ED00E063
:1006CC0014ED00E0002807DB01234109034A00F088
:1006DC001F00834042F82130704700BF00E100E06A
:1006EC0000280CDB01220649430900F01F00824060
:1006FC00203341F82320BFF34F8FBFF36F8F704728
:10070C0000E100E00138B0F1807F0BD24FF0E02324
:10071C00F021054A586182F82310002007229861C5
:10072C001A6170470120704700ED00E0002808DBDB
:10073C0001224309034900F01F008240603341F855
:10074C002320704700E100E0704708B5FFF7FCFF7D
:10075C0008BD704710B5044650B1437903F0FF0251
:10076C0013B90271FFF7F5FF01230020637110BD6F
:10077C000120FCE790F821200346022A06D004222F
:10078C0082630120002283F8202070470268C06B2E
:10079C00116821F00E011160116821F00101116046
:1007AC0001211A6C01FA02F24260002083F8211038
:1007BC00E8E7000008B590F82130022B03D00423A1
:1007CC008363012008BD03681A6822F00E021A60C8
:1007DC001A6822F001021A60174A93421FD0143291
:1007EC0093421ED0143293421DD0143293421DD02A
:1007FC00143293421DD01432934214BF4FF08073C5
:10080C004FF480130D4A5360012380F821300023EC
:10081C0080F82030436B03B198470020D2E70123C6
:10082C00F0E71023EEE74FF48073EBE74FF48053BF
:10083C00E8E74FF48033E5E708000240000002408F
:10084C0090F8210070470000044A08B55169014234
:10085C0002D0506101F07CFF08BD00BF00040140D4
:10086C00704710B5044698B12423026880F83D30D7
:10087C00136823F001031360FFF7F2FF00202064DC
:10088C0084F83C0084F83D00206384F83E0010BDE1
:10089C000120FCE737B5044690F83D0000F0280035
:1008AC00282830D100292CD0002A2AD094F83C00DA
:1008BC00012828D025682868C0075EBF286840F04A
:1008CC0001002860286820F400602860292084F842
:1008DC003D00202084F83E00002020646285628D5B
:1008EC00E36201906B6961620193AB6984F83C002F
:1008FC000193019B6B68228543F4E0636B6003B04A
:10090C0030BD0120FBE70220F9E737B5044690F82B
:10091C003D0000F02800282830D100292CD0002AD6
:10092C002AD094F83C00012828D025682868C007F4
:10093C005EBF286840F001002860286820F4006041
:10094C0028602A2084F83D00202084F83E000020F6
:10095C0020646285628DE36201906B696162019330
:10096C00AB6984F83C000193019B6B68228543F4CE
:10097C00E0636B6003B030BD0120FBE70220F9E7B8
:10098C0090F83D30202B14D1282380F83D3003689B
:10099C0000201A68D2075EBF1A6842F001021A6082
:1009AC001A6842F480621A605A6842F440725A60C3
:1009BC0070470220704770477047704710B590F829
:1009CC003D10026D0346C9B282B9C26C0168012A9E
:1009DC00826C05D1D2B20A61026D02321A6510BD69
:1009EC00C2F307220A611A6D0132F7E7026D012A80
:1009FC0003D1826C0168D2B2F4E7026D022A31D1C4
:100A0C00222905D101680A6842F480720A60EAE77B
:100A1C00428D92B272B121290AD1426A016812F850
:100A2C00010B08615A625A8D013A92B25A85D6E787
:100A3C005B8DD4E7428D92B2002AD0D12129CED140
:100A4C0001684C6824F4E0644C600C6844F4007455
:100A5C000C602021026380F83D1080F83E20FFF7E7
:100A6C00ACFFBCE703685A69120644BF00221A6146
:100A7C00B5E7704770470000002373B5406A0193D7
:100A8C0090F83D20344BD4B246F2A8121B68B3FB4D
:100A9C00F2F32322534301930368019A02BB026CC5
:100AAC0042F020020264D0E90D1201BB002A32D1BF
:100ABC00196821F48061196042851A6822F00102DC
:100ACC001A6090F83D20602A2CD1202380F83D300C
:100ADC00002380F83E300364FFF7CCFF02B070BDFA
:100AEC00019A013A01921A689205D6D4DBE70025E7
:100AFC008D6232B91D6825F480651D6042854A639C
:100B0C00DBE71E68956226F480661E6045854D63A2
:100B1C0000215163D1E71D68916225F480651D6049
:100B2C004185F5E704F02802282A0ED1196841F016
:100B3C0001011960196841F4806119600023036395
:100B4C0080F83D20FFF714FDC8E7202380F83D30E6
:100B5C00002380F83E30F5E72400002010B590F813
:100B6C003D2090F83E300446102BD9B2D2B2036827
:100B7C0001D040290CD1222A0AD11A6822F4006231
:100B8C001A6022685268120549D50022226307E0D8
:100B9C0002F0280128293DD10022226384F83D105F
:100BAC005A6812F400625BD05A68606B22F40062DF
:100BBC005A6090F82130012B3D4B37D04363FFF73F
:100BCC00F9FD50B12268606B136823F001031360C8
:100BDC00202384F83D30436B9847236C19071FBFC3
:100BEC002268536823F4E063536094F83D30226C20
:100BFC00DBB252070DD5282B0BD12E4B2022E362F2
:100C0C0000232046236384F83D2084F83E30FFF710
:100C1C0084FC10BD59680805B7D4602AB5D02022D1
:100C2C0084F83D20002284F83E20AEE7A06B43639D
:100C3C00FFF7C0FD0028D0D023685A69510605D5AE
:100C4C001A69636A1A70636A013363622268A06B63
:100C5C00136823F001031360202384F83D30BAE7B6
:100C6C0094F83D10602915D1202184F83D102264A0
:100C7C005A69520605D51A69636A1A70636A013398
:100C8C00636222682046136823F001031360FFF7A8
:100C9C00F1FEA2E75A69500605D51A69636A1A7003
:100CAC00636A013363622046FFF762FC95E700BF7D
:100CBC00850A00080000FFFFF0B5044603688FB0FA
:100CCC005A68C66A90F83E0094F83D101028C5B2D8
:100CDC00C9B202D0402D40F0D9829F69586910F0FA
:100CEC00010F07D1B6F52A0F02D0B6F12A4F51D118
:100CFC000FB0F0BD96054DD5E26AB2F52A0F0CD1B6
:100D0C000122E26294F83E20402A11D1226D52B9A0
:100D1C00626C02F0FE021A61EAE7E26AB2F12A4F53
:100D2C00F0D10822EDE7626C42F00102D2B2F2E798
:100D3C002269B2F5804F1AD194F83D20212A626CB9
:100D4C0011D102F0FE021A61626B0AB1926A2AB9E1
:100D5C00A26B002ACCD0926A002AC9D05A6842F4FD
:100D6C0000625A60C4E742F00102D2B2EBE7226D96
:100D7C0032B9626CD21102F0060242F0F002CAE7FC
:100D8C00226D012AB4D1626CD21102F0060242F03B
:100D9C00F102C0E7060703D5960501D5626CE4E7BE
:100DAC00860740F1F280960540F1EF8094F83E10F2
:100DBC00E26A256B94F83D00C9B2222840F0DD8030
:100DCC00206D40B9402906D100905A6900929B6968
:100DDC000093009B8CE7216D89B92069B0F5404FD9
:100DEC000DD101915A6901929A690192019A1A687E
:100DFC0042F480721A60236D0133236578E7618DAC
:100E0C0089B251B902915A6902929A690292029A74
:100E1C001A6842F400721A6019E0618D89B20129D6
:100E2C0049D112F5803F1BD11A6822F480621A60F6
:100E3C005A6812F400620CD01A6822F480621A60AC
:100E4C00002203925A6903929B690393039B00232C
:100E5C00D3E704925A6904929A690492049AD7E7E8
:100E6C00082A1CD0202A1AD0122D0DD1012A16D1F5
:100E7C001A6822F480621A60002205925A6905925F
:100E8C009B690593059BE2E7102AF1D8874941FA43
:100E9C0002F2D207ECD41A6842F48062EBE71A68CB
:100EAC0022F480621A60002206925A6906929A69AC
:100EBC000692069AACE7618D89B202293AD1102AC2
:100ECC0003D87B49D140CF0716D4196841F400618F
:100EDC001960002107915969079199690791079940
:100EEC00196821F48061196059680E05AFD5202A64
:100EFC0010D912F5803F10E0196841F48061196037
:100F0C0000210891596908919969089108995968C3
:100F1C000D059CD5072A02D8012A98D105E0A2F12B
:100F2C000801644ACA40D00791D55A6842F48052ED
:100F3C005A608CE7196841F4806119605968090599
:100F4C0005D5202A16D8072A09D8012A0DD0002247
:100F5C0009925A6909929B690993099B77E7A2F157
:100F6C000801544ACA40D207F1D55A6842F480525B
:100F7C005A60ECE712F5803FE8E700220A925A69C2
:100F8C000A929B690A930A9BB2E67F0740F1948010
:100F9C005E6836053FF5ACAE070600F004063ED59C
:100FAC0050053CD5002E3DD194F83D20258D94F86C
:100FBC003E10D2B2E06AC9B2C5B9212A18D10828AC
:100FCC0058D0202856D010F5803F53D05A6822F4C0
:100FDC00E0625A6011232363002384F83E302023FF
:100FEC00204684F83D30FFF7E6FC81E6212A05D047
:100FFC0040297FF47DAE222A7FF47AAE628D92B2C4
:10100C001AB95A6822F48062ABE694F83E20402A62
:10101C0016D120460FB0BDE8F040FFF7CFBC002E34
:10102C003FF466AE97057FF563AE212939D1E16AAD
:10103C0094F83D20212A7FF45BAE628D92B24AB1C6
:10104C00626A12F8011B19616262638D013B9BB2EB
:10105C0063854DE608290DD020290BD011F5803F72
:10106C0008D0596821F4E06159601123236384F896
:10107C003E20B4E75A68204622F4E0625A601A68AF
:10108C0042F400721A6000232022236384F83D206E
:10109C0094F83E2084F83E30402AA4D1FFF78DFC12
:1010AC0026E6402D7FF424AEB3E700BFEBFFFEFF36
:1010BC00140001000101000159680E053FF518AE3E
:1010CC00450600F0040176D5500574D5002975D17C
:1010DC0094F83D20222A7FF40BAE628D92B2032A43
:1010EC0014D91A69636A1A70636A01336362638D77
:1010FC00013B9BB26385638D9BB2032B7FF4F8ADF0
:10110C002268536823F480635360F1E5E06A022897
:10111C003FF477AF012A3FF674AF0B9146F2A8115A
:10112C00734A1268B2FBF1F202EB82020B920B9A39
:10113C00013A0B920B99D1B9226C204642F0200255
:10114C0022645A6822F4E0625A601A69636A1A705F
:10115C00636A01336362638D013B9BB26385202319
:10116C0084F83D3084F83E10FFF702FAC0E51A68A7
:10117C0012F40072DBD1196821F48061196059688E
:10118C0021F4E06159601969636A1970636A01336B
:10119C006362638D013B9BB26385202384F83D30F1
:1011AC0094F83E3084F83E20402B69D122632046CF
:1011BC00FFF75FFC9CE500293FF49AAD92057FF5A3
:1011CC0097ADE26A608D616A80B2042809D15A68D1
:1011DC0022F480625A601B690B70636A013363628C
:1011EC0033E7608D80B203280CD15868042A20F4B0
:1011FC0080605860EFD0022AEDD01A6822F4806229
:10120C001A60E8E7608D80B20228E4D1042A33D05A
:10121C0007D8012A07D0022A2ED01A6842F400728D
:10122C0004E0102AF9D11A6822F480621A601B6952
:10123C000B70626A531C6362638D013B9BB26385C6
:10124C0023681B695370636A226801336362638D80
:10125C00013B9BB26385536823F440735360202396
:10126C0084F83D3094F83E30402B4FF0000384F866
:10127C003E3005D123639AE71A6842F48062D5E7C1
:10128C00122320462363FFF797FB31E5206C10B344
:10129C000025586987072DD596052BD5226C02B1F0
:1012AC009D6994F83D2002F02802282A16D15A682C
:1012BC002F0622F480625A604FF0000385F004017F
:1012CC00204654BFA289228BC1F3800184F83C30A4
:1012DC00FFF7EFF80CE59D695869DBE700220C92EB
:1012EC0059690C919B6984F83C200C930C9BFFE48E
:1012FC0024000020C60640F1C280950540F1BF8055
:10130C0094F83D505A68EDB222F4E0625A60002223
:10131C000D925A690D921A6842F001021A600D9AE8
:10132C001A6822F480621A605A68100520D505F0FC
:10133C00F702222A3DD1A06B0268526892B26285F4
:10134C00628D92B21AB1226C42F0040222645A6885
:10135C0022F400625A60FFF773FA012808D0A06BE0
:10136C00814B4363FFF726FA10B1A06B436B984790
:10137C00638D9BB2002B3CD1236C002B56D12A2DB4
:10138C0074D123632823204684F83D30FFF7DAF824
:10139C0094F83D30282B5AD1744B2022E362002361
:1013AC002046236384F83D2084F83E30FFF7B5F8DF
:1013BC009EE4606B0268526892B26285628D92B252
:1013CC001AB1226C42F0040222645A6822F40062C0
:1013DC005A60FFF735FA012808D0606B624B436303
:1013EC00FFF7E8F910B1606B436B9847638D9BB2C4
:1013FC00D3B123685A6951071ED423685A6952061F
:10140C0009D51A69636A1A70636A01336362638D62
:10141C00013B9BB26385638D9BB2002BACD0236CDC
:10142C0043F004032364A7E7236CFBB120460FB001
:10143C00BDE8F040FFF792BB1A69636A1A70636AE1
:10144C0001336362638D013B9BB26385D5E7236BEC
:10145C00222B7FF44DAC00232022236384F83D2003
:10146C0084F83E302046FFF76DF841E494F83D30A7
:10147C00282B91D0236B222BEDD0222DE9E701F004
:10148C00F701212900F0040535D1070627D55605AB
:10149C0025D53DBB94F83D00628DC0B292B2002AB6
:1014AC003FF426AC626A12F8015B1D616262628DC8
:1014BC00013A92B26285628D92B2002A7FF418AC26
:1014CC0029287FF415AC5A68204622F480625A60B1
:1014DC002823216384F83D30FFF746F808E4002DFB
:1014EC003FF406AC95057FF503AC628D92B2002AF1
:1014FC003FF4FEABA4E5400627D5510525D53DBBF1
:10150C0094F83D20618DD2B289B200293FF4F0AB42
:10151C001969636A1970636A01336362638D013BF5
:10152C009BB26385638D9BB2002B7FF4E1AB2A2ABF
:10153C007FF4DEAB2268536823F48063536022236C
:10154C002363282384F83D308CE7002D3FF4D0AB87
:10155C0092057FF5CDAB628D92B2002A3FF4C8ABF9
:10156C001A69636A1A7038E6850A00080000FFFFE2
:10157C00F8B50368044659695E6890F83E2011F48A
:10158C008075D2B20AD016F4807507D06FF48070D3
:10159C0001255861186840F40040186001F480601F
:1015AC0001F40067890510D5F1050ED56FF40071B3
:1015BC0045F00205596160B917BB236C20462B43DB
:1015CC002364BDE8F840FFF7C9BA002849D0F105FB
:1015DC004AD5B4F82AC094F83D00202A6FF48061F3
:1015EC00D4F830E01FFA8CFCC0B262D1BCF1000F11
:1015FC000DD0596145F00405002FDED0F205DCD585
:10160C006FF40062236845F008055A61D5E700F0D5
:10161C00F702212A04D02828EBD1BEF1210FE8D102
:10162C0094F83D20E16AD2B2082901D020291ED1BC
:10163C00282A1CD1254A2046E2625A6822F4E0622C
:10164C005A606FF480625A611A6822F480621A60E0
:10165C0000232022236384F83D2084F83E30FEF7DB
:10166C005CFF0FB1F305CBD4002DA6D1F8BD212A18
:10167C001BD11649E16222630021202284F83D200F
:10168C0084F83E105A6822F4E0625A606FF480626B
:10169C005A611A6822F480621A605A69100648BFAF
:1016AC0019612046FEF760FFDBE76FF480625A6138
:1016BC00D7E7102A596145F0040501D0402A9BD187
:1016CC001A6842F400721A6096E700BF0000FFFF30
:1016DC002DE9F341054638B30368DB0710D42B68BA
:1016EC009F075ED42B68190700F195802B685A0769
:1016FC0000F1C180EB69002B40F02C81002029E027
:10170C00904C636803F00C03042B07D0636803F060
:10171C000C03082B0AD16368DE0307D523689C03EE
:10172C00DDD56B68002BDAD1012013E06B68B3F5C3
:10173C00803F12D1236843F480332360FEF77AFF95
:10174C00064623689803CAD4FEF774FF801B6428EE
:10175C00F7D9032002B0BDE8F0819BB9236823F4CC
:10176C0080332360236823F480232360FEF762FF19
:10177C00064623689903B2D5FEF75CFF801B6428EC
:10178C00F7D9E6E7B3F5A02F236803D143F4802300
:10179C002360CFE723F480332360236823F4802372
:1017AC00CBE7684C636813F00C0F07D0636803F049
:1017BC000C03082B10D16368DA030DD423689B0744
:1017CC0002D52B69012BAFD123686A6923F0F8038A
:1017DC0043EAC203236085E72A695B4B6AB10122A5
:1017EC001A60FEF727FF064623689F07ECD4FEF726
:1017FC0021FF801B0228F7D9ABE71A60FEF71AFF0E
:10180C000646236898077FF56DAFFEF713FF801B24
:10181C000228F6D99DE7AA694A4E4B4BE2B1012248
:10182C00C3F88024FEF706FF0446736A9B070DD5A8
:10183C004FF4FA52454B1B68B3FBF2F3019300BF14
:10184C00019B5A1E0192002BF9D14FE7FEF7F2FED5
:10185C00001B0228E9D97CE7C3F88024FEF7EAFED6
:10186C000446736A9F077FF541AFFEF7E3FE001B4A
:10187C000228F6D96DE7334CE369D80024D401274C
:10188C00E36943F08053E361E36903F08053009311
:10189C00009B2F4E3368D90518D5EB68012B26D148
:1018AC00236A43F001032362FEF7C4FE41F2883839
:1018BC000646236A9B073FD5002F3FF41BAFE36915
:1018CC0023F08053E36115E70027E2E7336843F424
:1018DC0080733360FEF7AEFE80463368DA05DCD4E5
:1018EC00FEF7A8FEA0EB08006428F6D931E7ABB9E7
:1018FC00236A41F2883823F001032362236A23F020
:10190C0004032362FEF796FE0646236A9807D3D596
:10191C00FEF790FE801B4045F7D91AE7052B236A8A
:10192C0003D143F004032362BAE723F001032362DB
:10193C00236A23F00403B6E7FEF77CFE801B4045C8
:10194C00B7D906E7001002400000424224000020F4
:10195C00007000402A4C626802F00C02082A3ED04B
:10196C000022022B274B1A662CD1FEF763FE06468B
:10197C002368990120D42B6AB3F5803F05D16268A6
:10198C00A96822F400320A436260696A62680B43F8
:10199C0022F474121343012263601A4B1A66FEF789
:1019AC0049FE054623689A013FF5A8AEFEF742FEB4
:1019BC00401B0228F6D9CCE6FEF73CFE801B022821
:1019CC00D6D9C6E6FEF736FE054623689B017FF5A1
:1019DC0095AEFEF72FFE401B0228F6D9B9E6012B77
:1019EC003FF4A2AE60682B6A00F480329A427FF416
:1019FC009BAE6B6A00F47010C01A18BF0120A9E6E8
:101A0C0000100240000042420D4A536803F00C01E2
:101A1C00082912D10B48C3F38341DB03405C09D581
:101A2C005368094AC3F340435043084AD35CB0FBA4
:101A3C00F3F07047064B584370470348704700BF9C
:101A4C0000100240AA3A000800127A00A83A0008D6
:101A5C0000093D002DE9F0410D46044610B9012066
:101A6C00BDE8F081444A136803F007038B4228D386
:101A7C0021688E0730D4CA0743D43F4A136803F059
:101A8C000703AB4265D822683C4D12F0040F6CD1B1
:101A9C00130706D56B68226923F4605343EAC2032B
:101AAC006B60FFF7B1FF6B68354AC3F30313D35C6C
:101ABC00D840344B1860344B1868FEF779FD002081
:101ACC00CEE7136823F007030B431360136803F08E
:101ADC0007038B42C3D1CBE7284B11F0040F1EBF79
:101AEC005A6842F4E0625A60080742BF5A6842F4EE
:101AFC0060525A605A68A06822F0F00202435A60A1
:101B0C00B9E762681D4E012A33681AD113F4003FFD
:101B1C00A5D0736841F2883823F003031343736034
:101B2C00FEF788FD07467368626803F00C03B3EB9D
:101B3C00820FA2D0FEF77EFDC01B4045F3D90320D7
:101B4C008EE7022A02D113F0007FE1E713F0020FB7
:101B5C00DEE7136823F007032B431360136803F0CD
:101B6C000703AB427FF47BAF8DE76B68E16823F42E
:101B7C00E0630B436B608BE70020024000100240D7
:101B8C00FC3A0008240000200400002003682DE922
:101B9C00F3410546D80721D5364CE369D9002BD43F
:101BAC000126E36943F08053E361E36903F080535A
:101BBC000193019B304F3B68DA051FD5236A6A6895
:101BCC0013F440732ED1236A6A6823F440731343D1
:101BDC0023621EB1E36923F08053E3612A68910705
:101BEC0006D52449A8684B6823F4404303434B6053
:101BFC00D30636D4002012E00026DBE73B6843F422
:101C0C0080733B60FEF716FD80463B68DB05D5D440
:101C1C00FEF710FDA0EB08006428F6D9032002B0F3
:101C2C00BDE8F08102F440729A42CCD00120134AF4
:101C3C00236AC2F84004002023F44071DF07C2F885
:101C4C0040042162BFD5FEF7F5FC41F28838074607
:101C5C00236A9807B7D4FEF7EDFCC01B4045F7D9B3
:101C6C00DCE7044AE968536823F480030B435360B0
:101C7C00C0E700BF0010024000700040000042426C
:101C8C0070477047036810B51A69044691070ED562
:101C9C00DA6892070BD56FF002021A610122027703
:101CAC009B699B0777D000F066FC002323772368A1
:101CBC001A69500710D5DA6851070DD56FF0040278
:101CCC001A61022222779B69204613F4407F68D068
:101CDC0000F051FC0023237723681A6912070FD5F3
:101CEC00DA6810070CD56FF008021A61042222770B
:101CFC00DB69204699075AD000F03DFC002323777E
:101D0C0023681A69D20610D5DA68D0060DD56FF0A3
:101D1C0010021A6108222277DB69204613F4407FF7
:101D2C004BD000F028FC0023237723681A69D107D5
:101D3C0008D5DA68D20705D56FF0010220461A6182
:101D4C0000F0F6FB23681A69100608D5DA6811064C
:101D5C0005D56FF0800220461A6100F08CF82368DC
:101D6C001A69520608D5DA68500605D56FF040029C
:101D7C0020461A61FFF785FF23681A69910622D560
:101D8C00DA6892061FD56FF020022046BDE810409D
:101D9C001A6100F06FB800F0ECFB2046FFF770FF03
:101DAC0083E700F0E6FB2046FFF76AFF92E700F0BE
:101DBC00E0FB2046FFF764FFA0E700F0DAFB2046CB
:101DCC00FFF75EFFAFE710BD134A036890420AD0DD
:101DDC00B0F1804F07D0A2F59432904203D002F5B7
:101DEC008062904207D14A6823F070031343CA689B
:101DFC0023F4407313434A6923F0800313430360B5
:101E0C008B68C3620B688362034B984204BF0B69F7
:101E1C000363012343617047002C014010B5044655
:101E2C0030B390F83D3003F0FF021BB980F83C2032
:101E3C0001F036F80223206884F83D30211DFFF7AD
:101E4C00C3FF0123002084F8463084F83E3084F828
:101E5C003F3084F8403084F8413084F8423084F8C4
:101E6C00433084F8443084F8453084F83D3010BD5C
:101E7C000120FCE770477047026802F10C0353E83D
:101E8C00003F23F490730C3242E8003102680029C1
:101E9C00F2D102F1140353E8003F23F0010302F1E5
:101EAC00140C4CE800310029F3D1036B012B0BD13E
:101EBC0002F10C0353E8003F23F0100302F10C0C69
:101ECC004CE800310029F3D1202380F84230002364
:101EDC000363704790F84130202B10D189B182B147
:101EEC00C28482840023212201620168436480F849
:101EFC004120CA68184642F08002CA60704702202E
:101F0C0070470120704708B50023406AC385C3841D
:101F1C0001F054F808BD704790F8423007B5222BF9
:101F2C0042D181680268B1F5805F836A3FD1016953
:101F3C0000293FD15268C2F3080223F8022B8362B6
:101F4C00C38D013B9BB2C385002B2DD10268D16898
:101F5C0021F02001D160D16821F48071D1605169E8
:101F6C0021F001015161202280F842204363026B71
:101F7C00012A026828D1036302F10C0353E8003FE5
:101F8C0023F0100302F10C0C4CE800310029F3D1C2
:101F9C001368DB0605D5019113680193536801930F
:101FAC00019B818DFFF7B7FF03B05DF804FB39B9D6
:101FBC00016929B95268D2B21A70836A0133BEE73B
:101FCC00526802F07F02F7E700F0F2FFECE7000046
:101FDC00036873B51A6804461607D9685D690AD197
:101FEC00960640F18B808D0640F1888002B0BDE8EA
:101FFC007040FFF791BF15F001054BD012F0010FA7
:10200C0002F0040363D11BB1636C43F002036364FD
:10201C00930749D5636C12F0080F43F00403636413
:10202C0003D0636C43F008036364636C002B5FD0D4
:10203C00920604D58B0602D52046FFF76DFF266865
:10204C0020467369626C03F0400302F0080253EA05
:10205C0002054FD0FFF710FF73695E0645D5226865
:10206C0002F1140353E8003F23F04003143242E81A
:10207C0000310029F3D1E06B002836D0894B436343
:10208C00FEF798FB002833D0E06B436B02B0BDE841
:10209C007040184711F4907F30D012F0010F02F00D
:1020AC00040307D190070DD41007BED501F020030F
:1020BC002B43B5E7CE050FD4002BF3D19607F3D500
:1020CC00002DA7D11507B0D511F0200FA8E7C80532
:1020DC0002D4002B98D1F1E7636C560743F001034F
:1020EC006364EBD5002DDDD08EE7204600F066FF53
:1020FC0002B070BD00F062FF6564F9E7206B012847
:10210C0040F09480D50640F19180C80640F18E8055
:10211C00002201921A6801925A680192019A5A6936
:10212C0052064DD5E16B0A68526892B2002ADFD094
:10213C00A08D9042DCD9E2858A69202A36D003F141
:10214C000C0252E8002F22F4807203F10C0040E8DC
:10215C0000210029F3D103F1140252E8002F22F0E0
:10216C00010203F1140040E800210029F3D103F12E
:10217C00140252E8002F22F0400203F1140040E850
:10218C0000210029F3D1202284F84220216303F19D
:10219C000C0252E8002F22F0100203F10C0040E870
:1021AC0000210029F3D1E06BFEF7E4FA022363630C
:1021BC00E38DA18DC91A89B22046FFF7ACFE97E7D3
:1021CC00E28DE08DA18D80B292B2002890D0891A58
:1021DC0089B200298CD003F10C0252E8002F22F4B2
:1021EC00907203F10C0545E800200028F3D103F1AF
:1021FC00140252E8002F22F0010203F1140545E805
:10220C0000200028F3D1202284F84220206303F11F
:10221C000C0252E8002F22F0100203F10C0545E8E5
:10222C0000200028F3D102236363C5E7160628D5E6
:10223C000D0626D594F84120212A7FF459AFA168C8
:10224C00226AB1F5805F17D12169A9B932F8021B56
:10225C00C1F3080159602262E28C013A92B2E28425
:10226C00002A7FF445AFDA6822F08002DA60DA687F
:10227C0042F04002DA603BE7511C216212785A604E
:10228C00EAE750067FF534AF4A067FF531AFDA68DE
:10229C00204622F04002DA60202384F8413000F01E
:1022AC008AFE25E7131F000890F84030012B11D04F
:1022BC002423026880F84130D36823F00C0343F0E8
:1022CC000803D360202380F84130002380F840308D
:1022DC00184670470220704790F84030012B11D0FF
:1022EC002423026880F84130D36823F00C0343F0B8
:1022FC000403D360202380F84130002380F8403061
:10230C00184670470220704790F8412090F8420020
:10231C00104370470023C2854364222382850269DF
:10232C0080F84230816203681AB1DA6842F4807234
:10233C00DA605A69002042F001025A61DA6842F010
:10234C002002DA60704770B490F84260202E06D1FB
:10235C0041B13AB10024046370BCFFF7DBBF02202B
:10236C0070BC70470120FBE7836810B504462BB1A5
:10237C000322014698470023C4E9023310BD000034
:10238C000C4A034690420ED0B0F1804F0DD0A2F50E
:10239C00943290420BD04FF6FF7002F5806293425C
:1023AC0008BF0320704700207047012070470220AF
:1023BC00704700BF002C0140014670B5044651F82F
:1023CC00100FFFF7DDFF0546084600F0FBFC00236D
:1023DC00084A04F1600642F82530E36004F1B005C8
:1023EC00B54204D0103D2846FDF759FFF8E72046CA
:1023FC0070BD00BF0C040020F8B504460846FFF77A
:10240C00BFFF4FF6FF73984200D1FEE7236903B17B
:10241C00FEE71C4D04F10C0245F820200E2204F1BD
:10242C0010063046C4E90C33C4E90E33C4E910334A
:10243C00C4E91623216184F82C30A36484F84C3051
:10244C0084F84D30E46000F079FC04F1600504F18F
:10245C00B00728461035FFF787FFBD42F9D100239E
:10246C004FF6FF72C4E90033C4E90632C4E90833FD
:10247C00A360636180233046A362BDE8F840FFF798
:10248C00CDBC00BF0C040020034B186810B1043005
:10249C00FFF7F8BB704700BF0C040020FFF7F4BF38
:1024AC00034B586810B10430FFF7ECBB704700BF0A
:1024BC000C040020034B986810B10430FFF7E2BB0A
:1024CC00704700BF0C040020034BD86810B10430D7
:1024DC00FFF7D8BB704700BF0C040020F8B50446CA
:1024EC000E4600F1600500F1B00728461035FDF7E7
:1024FC0080FFBD42F9D10023204631462361FFF70E
:10250C007BFF2046F8BD826810B50AB901F0A0FA2D
:10251C00C368BDE81040184708B500B9FEE700F0E5
:10252C000BFC0068836E13B16030FFF7ECFF08BD45
:10253C00FFF7F2BF10B500B9FEE7037F013B072B95
:10254C0010D8DFE803F004140F100F0F0F12012442
:10255C0000F0F2FB0068063400EB041083680BB14A
:10256C00FFF7D1FF10BD0324F2E70424F0E70224A7
:10257C00EEE7FFF7DFBFFFF7DDBF01F095B801F025
:10258C009BB8000086B0042841D8DFE800F00310A7
:10259C001C2834001F4B20489A6942F004029A61AF
:1025AC009B6903F004030193019B06B07047194B20
:1025BC001A489A6942F008029A619B6903F0080371
:1025CC000293029BF1E7134B15489A6942F01002F3
:1025DC009A619B6903F010030393039BE5E70D4B92
:1025EC0010489A6942F020029A619B6903F020031B
:1025FC000493049BD9E7074B0B489A6942F04002BD
:10260C009A619B6903F040030593059BCDE700207D
:10261C00CBE700BF0010024000080140000C014055
:10262C00001001400014014000180140F8B5144995
:10263C00074600F044FBFFF7A3FE124E044656F883
:10264C00203073B9B020FFF798FF0D490546384686
:10265C0000F035FB01462846FFF740FF56F82430C2
:10266C001D6056F824301C6844B12046FFF7A4FEC8
:10267C002046BDE8F840B021FFF781BFF8BD00BF90
:10268C009C3B00080C040020FDF7D4BF704708B534
:10269C00FDF7C4FFFEF759F8FFF7F8FF08BD7047C8
:1026AC000F4B84B0DA6942F08052DA61DA6902F0D9
:1026BC0080520192019A9A6942F001029A619A69D8
:1026CC0002F001020292029A5A6942F040025A61E7
:1026DC005B6903F040030393039B04B0704700BF96
:1026EC00001002400C4BD3F8FC20D2015EBFD3F893
:1026FC00FC2042F08072C3F8FC200022074B5A6089
:10270C001A6842F001021A6000BF00BF00BF58688F
:10271C00B0FA80F04009704700ED00E0001000E0D6
:10272C0008B5FFF7BDFFFFF7DDFFFDF765FFFFF70E
:10273C00B6FF00F0D3FCBDE808400148FEF70AB82C
:10274C001C0000200023C0E90033C0E902337047AD
:10275C000023012803F101020AD11422DBB25343F6
:10276C00054A181D1044816829B11A441369184789
:10277C0013464008EDE770471C0400200120FEF7CB
:10278C0063B80220FEF760B80420FEF75DB808209D
:10279C00FEF75AB81020FEF757B838B50524202597
:1027AC00A8B2FEF751F8013C4FEA4505F8D138BD07
:1027BC0038B506244FF48065A8B2FEF745F8013C05
:1027CC004FEA4505F8D138BD344A08B51046062302
:1027DC0000F8043BFFF7B6FF072302F1180013754E
:1027EC00FFF7B0FF082302F12C0082F82830FFF726
:1027FC00A9FF092302F1400082F83C30FFF7A2FF49
:10280C000A23172102F1540082F85030FFF79AFF87
:10281C0002F1680082F86410FFF794FF02F17C006B
:10282C0082F87810FFF78EFF02F1900082F88C107E
:10283C00FFF788FF02F1A40082F8A010FFF782FFD7
:10284C0082F8B410282102F1B800FFF77BFF02F1E7
:10285C00CC0082F8C810FFF775FF02F1E00082F897
:10286C00DC10FFF76FFF02F1F40082F8F010FFF7B5
:10287C0069FF02F5847082F80411FFF763FF02F51B
:10288C008E7082F81811FFF75DFFBDE8084002F565
:10289C00987082F82C11FFF755BF00BF1C04002064
:1028AC0038B5054CA4F5A075143C201DFDF7F7FCBC
:1028BC00AC42F9D138BD00BF5C0500207B4B82B027
:1028CC009A69013842F001029A619B6903F0010395
:1028DC000193019B23282CD8DFE810F024002D0055
:1028EC0034003B00400047004C00530058005F0090
:1028FC0068006D0074007D008200890092009B00CE
:10290C00A000A700B000B500BC002B002B002B00D2
:10291C00C100C8002B002B002B002B00CD00D200D7
:10292C00D900E000624A536843F0E06343F00103CE
:10293C00536002B070475E4A536823F0010343F0C2
:10294C00E063F5E75A4A536843F0E06343F002034F
:10295C00EEE7574A536823F00203F0E7544A5368F2
:10296C0043F0E06343F00403E2E7514A536823F079
:10297C000403E4E74E4A536843F0E06343F0080372
:10298C00D6E74B4A536823F00803D8E7484A536804
:10299C0043F0E06343F03003CAE7454A536823F041
:1029AC00300343F0E06343F01003C1E7404A53683F
:1029BC0023F03003C3E73E4A536843F0E06343F02F
:1029CC00C003B5E73A4A536823F0C00343F0E06311
:1029DC0043F04003ACE7364A536823F0C003AEE73C
:1029EC00334A536843F0E06343F44073A0E7304A42
:1029FC00536823F4407343F0E06343F4007397E7A8
:102A0C002B4A536823F4407343F0E06343F4807320
:102A1C008EE7274A536823F4407390E7244A53689F
:102A2C0043F0E06343F4406382E7214A536823F4A4
:102A3C00406343F0E06343F4006379E71C4A536856
:102A4C0023F440637BE71A4A536843F0E06343F492
:102A5C0080536DE7164A536823F480536FE7144A8A
:102A6C00536843F0E06343F4004361E7104A536852
:102A7C0023F4004363E70E4A536823F0E06357E7FF
:102A8C000B4A536823F0E06343F0807350E7084A25
:102A9C00536823F0E06343F0007349E7044A53683A
:102AAC0023F0E06343F0806342E700BF0010024074
:102ABC000000014091FAA1F3B3FA83F370B50D0E47
:102ACC000F2691FAA1F1B1FA81F144599B0006FA53
:102ADC0003F3890024EA03048A402243425170BD67
:102AEC0091FAA1F3B3FA83F370B50D0E042691FAA3
:102AFC00A1F1B1FA81F144599B0006FA03F3890064
:102B0C0024EA03048A402243425170BD431C04D082
:102B1C000C3151F80C3C5A1C01D1002070478342F7
:102B2C0001F10C01F5D1012070470000431C2DE987
:102B3C00F34106460F4600D1FEE7584B00F00F025A
:102B4C00C0F3031001F0070853F82250FFF71AFDE9
:102B5C00B8F1010F044615D195FAA5F3B3FA83F336
:102B6C000321280E22589B0001FA03F322EA0302E8
:102B7C0095FAA5F3B3FA83F39B00994011432150C6
:102B8C0001223BE0C7F30620B8F1030F0AD801A3DA
:102B9C0053F828F0B32B00088D2B0008FF2B0008EE
:102BAC00212C0008FEE7FFF789FE08222946204663
:102BBC00FFF780FF95FAA5F22B0EB2FA82F2E158DC
:102BCC000F239200934095FAA5F2B2FA82F2C7F362
:102BDC0001170B409200012F23FA02F31CD0022F95
:102BEC0045D0082B2BD1042229462046FFF762FF43
:102BFC0025E07F2801D0FFF761FE092229462046F7
:102C0C00FFF758FF17F0080218BF04222946FFF7F8
:102C1C0067FFCFE70022C9E7042B04D1082229461D
:102C2C002046FFF747FF01232A0A92FAA2F2B2FAD2
:102C3C0082F2E168934021EA15210B43E360184BC3
:102C4C009A6942F001029A619B6903F001030193B6
:102C5C00019BA6F10D03012B14D8124A536823F0E3
:102C6C00E06343F08063536002B0BDE8F081042B55
:102C7C0004D1082229462046FFF71CFFE36823EA0B
:102C8C001523DBE70F2E02D0133E012EECD8054A9C
:102C9C00536823F0E06343F00073E4E7BC3A0008A8
:102CAC0000100240000001400B685A1C01D10020AA
:102CBC007047834201D1486870470C31F4E7431CDC
:102CCC0001D0FFF7F1BF002070474B6813B94FF0EC
:102CDC00FF307047834201D1086870470C31F4E72C
:102CEC0008B1FFF7F2BF4FF0FF3070470F4B1A6877
:102CFC0042F001021A6059680D4A0A405A601A687B
:102D0C0022F0847222F480321A601A6822F4802233
:102D1C001A605A6822F4FE025A604FF41F029A603D
:102D2C004FF00062034B9A60704700BF00100240E6
:102D3C000000FFF800ED00E00438704703681D4AFE
:102D4C0084B093420BD11C4B9A6942F400629A6195
:102D5C009B6903F400630093009B04B07047B3F1CC
:102D6C00804F0BD103F50433DA6942F00102DA61CA
:102D7C00DB6903F001030193019BEEE70F4A9342D9
:102D8C000AD10D4BDA6942F00202DA61DB6903F019
:102D9C0002030293029BE0E7094A9342DDD1064B02
:102DAC00DA6942F00402DA61DB6903F0040303938D
:102DBC00039BD2E7002C01400010024000040040AD
:102DCC00000800400368124A934206D102F564429F
:102DDC00936923F4006393617047B3F1804F05D17D
:102DEC000C4AD36923F00103D36170470A4A93421A
:102DFC0005D102F50332D36923F00203F4E7074A45
:102E0C009342F2D102F50232D36923F00403EBE7CB
:102E1C00002C01400010024000040040000800405B
:102E2C00431C10D00C4B984210D007D8B0F1804FF7
:102E3C000ED0A3F5806398420CD0FEE7074B984266
:102E4C00FBD1192070476FF00D0070471E207047A2
:102E5C001C2070471D20704700080040002C0140CA
:102E6C00431C10D00C4B984210D007D8B0F1804FB7
:102E7C000ED0A3F5806398420CD0FEE7074B984226
:102E8C00FBD11B2070476FF00D0070471E20704760
:102E9C001C2070471D20704700080040002C01408A
:102EAC0038B50446FFF74AFF0068FFF7B9FFD4E9CD
:102EBC001212FDF7D7FB2068FFF7B2FFFDF702FCFB
:102ECC0022681046FFF7CCFF05461046FFF7A8FF17
:102EDC0085420BD0D4E912122846FDF7C3FB2068BB
:102EEC00FFF7BEFFBDE83840FDF7ECBB38BD000076
:102EFC0008B5074B90F8652053F82200FFF704FA49
:102F0C0000F02200A0F122035842584108BD00BF36
:102F1C005C05002008B5074B90F8652053F822009B
:102F2C00FFF7F2F900F02100A0F1210358425841BB
:102F3C0008BD00BF5C05002038B515460446B8B185
:102F4C00016590F96400FDF7CBFBB4F87630E16EC7
:102F5C009BB294F865001944064BAAB253F82000B2
:102F6C00FEF7B8FF94F96400BDE83840FDF7AABB42
:102F7C0038BD00BF5C05002048B1836D013306D11C
:102F8C0090F86520024B53F82200FFF78DB970477B
:102F9C005C05002048B1836D013306D190F86520A3
:102FAC00024B53F82200FFF797B970475C050020DD
:102FBC00836C04381847C36C0438184730B5044682
:102FCC0050F8043985B01D6815F0010512D00022A7
:102FDC0000921A6800925B680093009BFFF788FFD1
:102FEC0040BB0122204604F1620105B0BDE830402F
:102FFC00FFF7A9B9196811F0020106D001951A68FA
:10300C0001925B680193019BE8E71A6812F00402D5
:10301C0006D002911A6802925B680293029BDDE76C
:10302C0019680907DAD503921A6803925B6803934F
:10303C00039BD3E705B030BD08B52520FDF776FB23
:10304C00024B1868BDE80840FEF7C2BF5C050020C3
:10305C00262008B5FDF76AFB034B586818B1BDE88C
:10306C000840FEF7B5BF08BD5C050020272008B559
:10307C00FDF75CFB034B986818B1BDE80840FEF700
:10308C00A7BF08BD5C05002003460A4910B50868B7
:10309C000344EFF30882934205D90C224FF0FF3022
:1030AC00054B1A6010BD054A054C121B9342F4D215
:1030BC000B60F7E728000020D40700200050002008
:1030CC0000040000FEE700001622024B4FF0FF3018
:1030DC001A607047D40700200120704710B594B0D7
:1030EC00142200210CA800F0CBFB142200210DEBC4
:1030FC00020000F0C5FB1022002101A800F0C0FB6B
:10310C0002244FF480330122CDE91143CDE90A2387
:10311C004FF4E0130AA80E921393FEF7D9FA00B1FC
:10312C00FEE70F23CDE905344FF480630790CDE91A
:10313C000830214605A8FEF78DFC00B1FEE71223EE
:10314C0001934FF40043CDE9033001A8FEF71EFDB7
:10315C0000B1FEE714B010BD10B5044600F00AF93A
:10316C00E060236820465B699847002808DA00F085
:10317C0001F9E368C01AA3689842F2D34FF0FF300C
:10318C0010BDF8B507460D460C468E18B44201D159
:10319C00601BF8BD3846FFF7DFFF031EF8DB04F8B1
:1031AC00013BF3E72DE9F0410746884616461D46DC
:1031BC0073B100243846FFF7CFFF031E05DB4345F0
:1031CC0003D033550134A542F4D12046BDE8F0813B
:1031DC001C46FAE708B50320FDF732FABDE80840B3
:1031EC0000F0D8B808B5AFF30080FDF707F8FDF78D
:1031FC000DF800F0C1F8FAE7FFF778FD0B480C4921
:10320C000C4A002302E0D458C4500433C4188C4236
:10321C00F9D3094A094C002301E013600432A2429D
:10322C00FBD300F045FBFFF7DDFF704700000020EB
:10323C007C000020343F00087C000020DC070020CC
:10324C00FEE70000C3B2322B2DE9F0410D462AD81F
:10325C00274A00F4E06452F823301C43621C44D02B
:10326C00244EC4F3031756F8273004F00F0823FA42
:10327C0008F3DB0710D520461F49FFF747FC10B1B8
:10328C002046FFF7D3F9012256F8273002FA08F24C
:10329C0023EA020346F82730052D15D8DFE805F0A0
:1032AC0015211B1D1F2300F0C002C02A1DD1CF2BDE
:1032BC001BD8124B00F03F0253F822200C4B00F4A9
:1032CC00E06453F82230C8E7FEE700212046BDE851
:1032DC00F041FFF72BBC1021F8E72021F6E7032182
:1032EC00F4E70121F2E70921F0E7BDE8F08100BF26
:1032FC00103E0008680500209C3B0008D03D0008EB
:10330C00C3B2322B16D8174A00F4E06052F82330BF
:10331C001843C0F30313042B1FD8134A52F823305D
:10332C00124A00F00F0052F82020C2F30F22B1B164
:10333C001A61704700F0C002C02A0CD1CF2B0AD8FA
:10334C000B4B00F03F0253F82220064B00F4E060D8
:10335C0053F82230DCE74FF0FF300023E0E75A61EE
:10336C00704700BF103E000808000020BC3A00085F
:10337C00D03D0008FFF788B908B5044B2BB10448C1
:10338C0000F00AF808B1AFF3008008BD000000009F
:10339C007C050020FFF7C4B9B0F80831B0F804215F
:1033AC00981A00F03F007047B0F80831B0F80421CB
:1033BC009BB293421ABFD0F8FC30985C4FF0FF30B0
:1033CC00704790F80631B0F80A01C0B2834227BFAB
:1033DC00C3F13F03C018C01A00F1FF30704707B5A6
:1033EC0003688DF8071001225B680DF107019847FF
:1033FC0003B05DF804FB0000B0F87610826F10B5D6
:10340C000A4402F03F02A0F87620B0F87610B0F82B
:10341C00722089B28A421AD0B0F876404032A4B2F7
:10342C00B0F87610121B544289B204F03F0402F03B
:10343C003F02C1F1400158BF62428A4228BF0A468E
:10344C0004498267FFF778FD4FF0FF3010BD002074
:10345C00FCE700BF0534000803682DE9F0479B68C2
:10346C00044688461646984701232374D4F8EC305A
:10347C00B4F8069101338246C9F1400904F194076E
:10348C0008D194F810312BB10023384684F8103150
:10349C00FFF772FD236820469B6898470028F9D0F7
:1034AC0035464D4523D8554521D8B4F80621D4F8D6
:1034BC0000015319402B10442FD82A46414600F0E6
:1034CC001DFAA946B4F8063138461D4405F03F05EF
:1034DC00A4F80651FFF71EFD30B94A463846164986
:1034EC00C4F80C91FFF728FD3046BDE8F087D145B4
:1034FC0028BFD14623684A4641465B682046984718
:10350C00236820469B689847A5EB0905C844B4F886
:10351C0006918246C9F14009C3E7C2F140094A4607
:10352C00414600F0EBF9D4F80001A5EB090208EBD9
:10353C00090100F0E3F9C5E705340008037C70B518
:10354C0004460D46A3B1FDF775F80646B4F80621FE
:10355C00B4F80A319BB29A420AD0002DF8D0FDF78C
:10356C0069F8801B8542F1D8B4F80A31A4F8063109
:10357C0070BDC0F8F030009B914208BF4FF0FF3196
:10358C00C0F8F43000F11103C0F8FC300023C0E99E
:10359C003A2100F15102A0F80831C0E94023A0F80B
:1035AC000A317047F7B54FF47A7317460022C0E919
:1035BC0001231C4B044603604FF0FF33C0F8EC3082
:1035CC00194B1A4E9C420D46706A05D1B36AC4F869
:1035DC00EC30C4F8E8000AE01549FFF770FB8542AF
:1035EC0015D1B36AC4F8EC30736AC4F8E8304FF004
:1035FC00FF33012F08BFC4F8EC3000932046D4E908
:10360C003A214FF0FF33FFF7B4FF03B0F0BD28466B
:10361C000849FFF765FB0649C4F8EC002846FFF79C
:10362C005FFBD6E7E43E00087C050020103E000856
:10363C00543B00080C3B0008D0F8EC3010B50133BB
:10364C0004460FD1036800215B6A984794F8103147
:10365C0043B9012304F1940084F81031BDE8104003
:10366C00FFF798BC10BD10B50446FFF7E5FFB4F8A2
:10367C000821B4F8043192B29A4217BFD4F8FC2056
:10368C004FF0FF30D05C01331CBF03F03F03A4F8B4
:10369C00043110BD002202490248FFF783BF00BF6E
:1036AC00003801407C050020024B0146186800F0F0
:1036BC002DB800BF2C000020024B0146186800F00A
:1036CC002BB900BF2C00002070B50F4E0C46316892
:1036DC00054611B900F0DCF830602146284600F0B0
:1036EC00D7F8431C03D14FF0FF34204670BDC41CE7
:1036FC0024F00304A042F8D0211A284600F0C8F8A0
:10370C000130F2D1EFE700BF940600202DE9F04123
:10371C00CD1C25F0030508350C2D38BF0C25002DCC
:10372C00064601DBA94204D90C2333600020BDE816
:10373C00F081314F00F062F83B681C4644BB2946CF
:10374C003046FFF7C1FF431C044650D13C6821466C
:10375C00002941D1002C44D02368304604EB0308E7
:10376C0000F096F880453CD1216830466D1A294608
:10377C00FFF7AAFF013034D023682B4423603B6849
:10378C00002B36D05A68A24229D100225A600EE092
:10379C002268521B1DD40B2A16D96119A34225602D
:1037AC0018BF5960636808BF396062514B6030467E
:1037BC0000F02AF804F10B00231D20F00700C21AB8
:1037CC00B5D01B1AA350B2E7A3426268DED13A60AF
:1037DC00EDE723466468B1E70C464968B8E7134641
:1037EC00CEE70C233046336000F00EF89EE7056000
:1037FC00DDE75B60FFDE00BF98060020014800F0AB
:10380C007BB800BFD8070020014800F076B800BF95
:10381C00D8070020024B0A460146186800F002B88F
:10382C002C0000202DE9F041804615460C4621B9AC
:10383C001146BDE8F041FFF769BF2AB900F06CF8FA
:10384C0000242046BDE8F08100F0AEF88542064623
:10385C0002D8B5EB500FF4D829464046FFF756FF77
:10386C0007460028ECD0B5422A46214628BF3246EE
:10387C0000F044F82146404600F04EF83C46E0E7A4
:10388C0003460244934200D1704703F8011BF9E749
:10389C0038B50023054D044608462B60FFF7F4FBB2
:1038AC00431C02D12B6803B1236038BDD407002020
:1038BC0070B500260C4D0D4C641BA410A64209D10A
:1038CC0000F0CAF800260A4D0A4C641BA410A6424C
:1038DC0005D170BD55F8043B98470136EEE755F815
:1038EC00043B98470136F2E70C3F00080C3F0008F8
:1038FC000C3F0008283F0008704770470A4491426B
:10390C0000F1FF3300D1704710B511F8014B914213
:10391C0003F8014FF9D110BD38B50546002940D048
:10392C0051F8043C0C1F002BB8BFE418FFF766FFDE
:10393C001C4A136833B9636014602846BDE83840EC
:10394C00FFF762BFA34208D9206821188B4201BF40
:10395C0019685B6809182160EDE71A465B680BB1C2
:10396C00A342FAD911685018A0420BD12068014427
:10397C00501883421160E0D118685B6808441060ED
:10398C005360DAE702D90C232B60D6E720682118A4
:10399C008B4201BF19685B68091821606360546031
:1039AC00CBE738BD9806002051F8043C181F002BBB
:1039BC00BCBF0B58C0187047062008B500F02CF897
:1039CC000120FFF77FFB1F2938B505460C4604D9AB
:1039DC00162303604FF0FF3038BDC26B12B152F8A2
:1039EC0021304BB9284600F031F8224601462846D2
:1039FC00BDE8384000F018B8012B0AD0591C03D18F
:103A0C00162303600120E7E70021204642F824102A
:103A1C0098470020E0E70000024B01461868FFF7CA
:103A2C00D2BF00BF2C00002038B50023064D044641
:103A3C00084611462B60FFF747FB431C02D12B684D
:103A4C0003B1236038BD00BFD4070020FFF744BB8F
:103A5C0008B5FFF7B1FF0000F8B500BFF8BC08BC13
:103A6C009E467047F8B500BFF8BC08BC9E46704730
:103A7C0000000000000000003F0300088103000864
:103A8C0071020008D3030008770200087F020008C7
:103A9C00990200088F310008B131000801020203BD
:103AAC000405060708090A0B0C0D0E0F1010000078
:103ABC0001010000020200000404000008080000DC
:103ACC00101000002020000040400000808000000A
:103ADC0001000104020002040400040408000804AC
:103AEC0010001004200020044000400480008004DA
:103AFC000000000000000000010203040607080992
:103B0C000300000000440040100800000A00000000
:103B1C00003801401006000017000000003801407A
:103B2C00100500001B0000000048004010000000C1
:103B3C002B00000000480040100A0000FFFFFFFFB0
:103B4C0000000000000000000200000000440040E3
:103B5C0012080000090000000038014012060000A5
:103B6C001600000000380140120500001A00000089
:103B7C0000480040120000002A00000000480040ED
:103B8C00120A0000FFFFFFFF000000000000000011
:103B9C000000000000000040128000000001000046
:103BAC0000000040129000000100000000000040E6
:103BBC00121201000101000000000040121001006F
:103BCC0002000000000000401292010002010000FF
:103BDC0000000040129101000300000000000040B2
:103BEC00121202000301000000000040121102003A
:103BFC0006000000000400401295000007000000C1
:103C0C00002C0140128D1000070100000004004040
:103C1C001215010008000000002C0140128E00005B
:103C2C0008010000002C0140128D0000090000006A
:103C3C00002C0140120E010009010000002C014073
:103C4C00120D01000A000000002C0140128E010030
:103C5C000A010000002C0140128D01000B00000035
:103C6C00002C0140120E02000B010000002C014040
:103C7C00120D02000F000000000000401291000025
:103C8C000F01000000000040128F00001000000027
:103C9C00002C0140120D1100100100000004004026
:103CAC001295010010020000000400401294010063
:103CBC0011000000002C0140128D110011010000B8
:103CCC000004004012150200110200000004004024
:103CDC001214020013000000000000401211010039
:103CEC001301000000000040120F0100140000003E
:103CFC000004004012940000150000000004004075
:103D0C001214010016000000000800401297000079
:103D1C0017000000000800401217010018000000F6
:103D2C000008004012970100190000000008004034
:103D3C00121702001A00000000000040129001004F
:103D4C001A01000000000040128F01001B0000004F
:103D5C0000000040121002001B0100000000004097
:103D6C00120F02001D000000002C0140128E1000EA
:103D7C001E000000002C0140120E11001F0000005C
:103D8C00002C0140128E110026000000000400409F
:103D9C0012930000270000000004004012130100E1
:103DAC0028000000000400401293010029000000CC
:103DBC000004004012130200FFFFFFFF0000000090
:103DCC0000000000000000000100000002000000E4
:103DDC0003000000040000000500000006000000C5
:103DEC00070000001000000011000000200000007F
:103DFC00210000002200000023000000240000002D
:103E0C00250000000000000001000000020000007E
:103E1C000300000004000000050000000600000084
:103E2C000700000008000000090000000A00000064
:103E3C000B0000000C0000000D0000000E00000044
:103E4C000F00000010000000110000001200000024
:103E5C001300000014000000150000001600000004
:103E6C001700000018000000190000001A000000E4
:103E7C001B0000001C0000001D0000001E000000C4
:103E8C001F000000200000002100000022000000A4
:103E9C002300000024000000250000002600000084
:103EAC002700000028000000290000002A00000064
:103EBC002B0000002C0000002D0000002E00000044
:103ECC002F00000030000000310000003200000024
:103EDC000000000000000000EB330008653400080F
:103EEC00CF33000875020008A533000873360008AC
:103EFC00B53300088F310008B1310008493500088E
:103F0C00E1310008310100081D02000865020008BB
:0C3F1C0055040008D5270008A136000855
:0C3F28000D01000861040008AD2800082D
:103F3400010000001000000000080140000C0140D6
:103F440000100140001401400018014000300240FC
:103F5400000000000024F400E007002030000020EE
:103F6400000000009C060020040700206C070020CD
:103F7400000000000000000000000000000000003D
:103F8400000000000000000000000000000000002D
:103F9400000000000000000000000000000000001D
:0C3FA40000000000000000000000000011
:0400000508003205B8
:00000001FF
